{
  "contractName": "SupplyChain",
  "abi": [
    {
      "constant": false,
      "inputs": [
        {
          "name": "account",
          "type": "address"
        }
      ],
      "name": "addConsumer",
      "outputs": [],
      "payable": false,
      "stateMutability": "nonpayable",
      "type": "function"
    },
    {
      "constant": true,
      "inputs": [
        {
          "name": "account",
          "type": "address"
        }
      ],
      "name": "isRetailer",
      "outputs": [
        {
          "name": "",
          "type": "bool"
        }
      ],
      "payable": false,
      "stateMutability": "view",
      "type": "function"
    },
    {
      "constant": false,
      "inputs": [],
      "name": "renounceConsumer",
      "outputs": [],
      "payable": false,
      "stateMutability": "nonpayable",
      "type": "function"
    },
    {
      "constant": true,
      "inputs": [
        {
          "name": "account",
          "type": "address"
        }
      ],
      "name": "isConsumer",
      "outputs": [
        {
          "name": "",
          "type": "bool"
        }
      ],
      "payable": false,
      "stateMutability": "view",
      "type": "function"
    },
    {
      "constant": false,
      "inputs": [
        {
          "name": "account",
          "type": "address"
        }
      ],
      "name": "addRetailer",
      "outputs": [],
      "payable": false,
      "stateMutability": "nonpayable",
      "type": "function"
    },
    {
      "constant": false,
      "inputs": [],
      "name": "renounceRetailer",
      "outputs": [],
      "payable": false,
      "stateMutability": "nonpayable",
      "type": "function"
    },
    {
      "inputs": [],
      "payable": true,
      "stateMutability": "payable",
      "type": "constructor"
    },
    {
      "anonymous": false,
      "inputs": [
        {
          "indexed": false,
          "name": "upc",
          "type": "uint256"
        }
      ],
      "name": "Harvested",
      "type": "event"
    },
    {
      "anonymous": false,
      "inputs": [
        {
          "indexed": false,
          "name": "upc",
          "type": "uint256"
        }
      ],
      "name": "Processed",
      "type": "event"
    },
    {
      "anonymous": false,
      "inputs": [
        {
          "indexed": false,
          "name": "upc",
          "type": "uint256"
        }
      ],
      "name": "Packed",
      "type": "event"
    },
    {
      "anonymous": false,
      "inputs": [
        {
          "indexed": false,
          "name": "upc",
          "type": "uint256"
        }
      ],
      "name": "ForSale",
      "type": "event"
    },
    {
      "anonymous": false,
      "inputs": [
        {
          "indexed": false,
          "name": "upc",
          "type": "uint256"
        }
      ],
      "name": "Sold",
      "type": "event"
    },
    {
      "anonymous": false,
      "inputs": [
        {
          "indexed": false,
          "name": "upc",
          "type": "uint256"
        }
      ],
      "name": "Shipped",
      "type": "event"
    },
    {
      "anonymous": false,
      "inputs": [
        {
          "indexed": false,
          "name": "upc",
          "type": "uint256"
        }
      ],
      "name": "Received",
      "type": "event"
    },
    {
      "anonymous": false,
      "inputs": [
        {
          "indexed": false,
          "name": "upc",
          "type": "uint256"
        }
      ],
      "name": "Purchased",
      "type": "event"
    },
    {
      "anonymous": false,
      "inputs": [
        {
          "indexed": true,
          "name": "account",
          "type": "address"
        }
      ],
      "name": "ConsumerAdded",
      "type": "event"
    },
    {
      "anonymous": false,
      "inputs": [
        {
          "indexed": true,
          "name": "account",
          "type": "address"
        }
      ],
      "name": "ConsumerRemoved",
      "type": "event"
    },
    {
      "anonymous": false,
      "inputs": [
        {
          "indexed": true,
          "name": "account",
          "type": "address"
        }
      ],
      "name": "RetailerAdded",
      "type": "event"
    },
    {
      "anonymous": false,
      "inputs": [
        {
          "indexed": true,
          "name": "account",
          "type": "address"
        }
      ],
      "name": "RetailerRemoved",
      "type": "event"
    },
    {
      "constant": false,
      "inputs": [],
      "name": "kill",
      "outputs": [],
      "payable": false,
      "stateMutability": "nonpayable",
      "type": "function"
    },
    {
      "constant": false,
      "inputs": [
        {
          "name": "_upc",
          "type": "uint256"
        },
        {
          "name": "_originFarmerID",
          "type": "address"
        },
        {
          "name": "_originFarmName",
          "type": "string"
        },
        {
          "name": "_originFarmInformation",
          "type": "string"
        },
        {
          "name": "_originFarmLatitude",
          "type": "string"
        },
        {
          "name": "_originFarmLongitude",
          "type": "string"
        },
        {
          "name": "_productNotes",
          "type": "string"
        }
      ],
      "name": "harvestItem",
      "outputs": [],
      "payable": false,
      "stateMutability": "nonpayable",
      "type": "function"
    },
    {
      "constant": false,
      "inputs": [
        {
          "name": "_upc",
          "type": "uint256"
        },
        {
          "name": "_productID",
          "type": "uint256"
        }
      ],
      "name": "processItem",
      "outputs": [],
      "payable": false,
      "stateMutability": "nonpayable",
      "type": "function"
    },
    {
      "constant": false,
      "inputs": [
        {
          "name": "_upc",
          "type": "uint256"
        }
      ],
      "name": "packItem",
      "outputs": [],
      "payable": false,
      "stateMutability": "nonpayable",
      "type": "function"
    },
    {
      "constant": false,
      "inputs": [
        {
          "name": "_upc",
          "type": "uint256"
        },
        {
          "name": "_price",
          "type": "uint256"
        }
      ],
      "name": "sellItem",
      "outputs": [],
      "payable": false,
      "stateMutability": "nonpayable",
      "type": "function"
    },
    {
      "constant": false,
      "inputs": [
        {
          "name": "_upc",
          "type": "uint256"
        },
        {
          "name": "_distributorID",
          "type": "address"
        }
      ],
      "name": "buyItem",
      "outputs": [],
      "payable": true,
      "stateMutability": "payable",
      "type": "function"
    },
    {
      "constant": false,
      "inputs": [
        {
          "name": "_upc",
          "type": "uint256"
        }
      ],
      "name": "shipItem",
      "outputs": [],
      "payable": false,
      "stateMutability": "nonpayable",
      "type": "function"
    },
    {
      "constant": false,
      "inputs": [
        {
          "name": "_upc",
          "type": "uint256"
        },
        {
          "name": "_retailerID",
          "type": "address"
        }
      ],
      "name": "receiveItem",
      "outputs": [],
      "payable": false,
      "stateMutability": "nonpayable",
      "type": "function"
    },
    {
      "constant": false,
      "inputs": [
        {
          "name": "_upc",
          "type": "uint256"
        },
        {
          "name": "_consumerID",
          "type": "address"
        }
      ],
      "name": "purchaseItem",
      "outputs": [],
      "payable": false,
      "stateMutability": "nonpayable",
      "type": "function"
    },
    {
      "constant": true,
      "inputs": [
        {
          "name": "_upc",
          "type": "uint256"
        }
      ],
      "name": "fetchItemBufferOne",
      "outputs": [
        {
          "name": "itemSKU",
          "type": "uint256"
        },
        {
          "name": "itemUPC",
          "type": "uint256"
        },
        {
          "name": "ownerID",
          "type": "address"
        },
        {
          "name": "originFarmerID",
          "type": "address"
        },
        {
          "name": "originFarmName",
          "type": "string"
        },
        {
          "name": "originFarmInformation",
          "type": "string"
        },
        {
          "name": "originFarmLatitude",
          "type": "string"
        },
        {
          "name": "originFarmLongitude",
          "type": "string"
        }
      ],
      "payable": false,
      "stateMutability": "view",
      "type": "function"
    },
    {
      "constant": true,
      "inputs": [
        {
          "name": "_upc",
          "type": "uint256"
        }
      ],
      "name": "fetchItemBufferTwo",
      "outputs": [
        {
          "name": "itemSKU",
          "type": "uint256"
        },
        {
          "name": "itemUPC",
          "type": "uint256"
        },
        {
          "name": "productID",
          "type": "uint256"
        },
        {
          "name": "productNotes",
          "type": "string"
        },
        {
          "name": "productPrice",
          "type": "uint256"
        },
        {
          "name": "itemState",
          "type": "uint256"
        },
        {
          "name": "distributorID",
          "type": "address"
        },
        {
          "name": "retailerID",
          "type": "address"
        },
        {
          "name": "consumerID",
          "type": "address"
        }
      ],
      "payable": false,
      "stateMutability": "view",
      "type": "function"
    }
  ],
  "bytecode": "0x60806040526200001e336200008f640100000000026401000000009004565b6200003833620000f9640100000000026401000000009004565b33600260006101000a81548173ffffffffffffffffffffffffffffffffffffffff021916908373ffffffffffffffffffffffffffffffffffffffff16021790555060016004819055506001600381905550620002bb565b620000b3816000620001636401000000000262002503179091906401000000009004565b8073ffffffffffffffffffffffffffffffffffffffff167f71ae26cad02663e3d92efd6ec56031a80d74a20c0ab4183faa8bf262261c9baa60405160405180910390a250565b6200011d816001620001636401000000000262002503179091906401000000009004565b8073ffffffffffffffffffffffffffffffffffffffff167f28b26e7a3d20aedbc5f8f2ebf7da671c0491723a2b78f47a097b0e46dee0714260405160405180910390a250565b600073ffffffffffffffffffffffffffffffffffffffff168173ffffffffffffffffffffffffffffffffffffffff1614151515620001a057600080fd5b620001bb828262000226640100000000026401000000009004565b151515620001c857600080fd5b60018260000160008373ffffffffffffffffffffffffffffffffffffffff1673ffffffffffffffffffffffffffffffffffffffff16815260200190815260200160002060006101000a81548160ff0219169083151502179055505050565b60008073ffffffffffffffffffffffffffffffffffffffff168273ffffffffffffffffffffffffffffffffffffffff16141515156200026457600080fd5b8260000160008373ffffffffffffffffffffffffffffffffffffffff1673ffffffffffffffffffffffffffffffffffffffff16815260200190815260200160002060009054906101000a900460ff16905092915050565b61282380620002cb6000396000f3006080604052600436106100f1576000357c0100000000000000000000000000000000000000000000000000000000900463ffffffff168063112940f9146100f65780632d9235611461013957806341c0e1b5146101705780635da09b88146101875780635e5d30ca146101e257806361e6982d1461021957806366225ff9146102305780637383d7091461039257806377c45913146103d25780637bfe9efd14610630578063834ff7391461067d5780638ec4f505146106d8578063a80b20f21461071b578063bdd8a6a814610768578063db0e6a2f14610913578063f30fc4801461092a578063f61c899a14610957575b600080fd5b34801561010257600080fd5b50610137600480360381019080803573ffffffffffffffffffffffffffffffffffffffff169060200190929190505050610984565b005b34801561014557600080fd5b5061016e60048036038101908080359060200190929190803590602001909291905050506109a4565b005b34801561017c57600080fd5b50610185610aee565b005b34801561019357600080fd5b506101c8600480360381019080803573ffffffffffffffffffffffffffffffffffffffff169060200190929190505050610b81565b604051808215151515815260200191505060405180910390f35b3480156101ee57600080fd5b506102176004803603810190808035906020019092919080359060200190929190505050610b9e565b005b34801561022557600080fd5b5061022e610ce8565b005b34801561023c57600080fd5b5061025b60048036038101908080359060200190929190505050610cf3565b604051808a8152602001898152602001888152602001806020018781526020018681526020018573ffffffffffffffffffffffffffffffffffffffff1673ffffffffffffffffffffffffffffffffffffffff1681526020018473ffffffffffffffffffffffffffffffffffffffff1673ffffffffffffffffffffffffffffffffffffffff1681526020018373ffffffffffffffffffffffffffffffffffffffff1673ffffffffffffffffffffffffffffffffffffffff168152602001828103825288818151815260200191508051906020019080838360005b8381101561034f578082015181840152602081019050610334565b50505050905090810190601f16801561037c5780820380516001836020036101000a031916815260200191505b509a505050505050505050505060405180910390f35b6103d060048036038101908080359060200190929190803573ffffffffffffffffffffffffffffffffffffffff1690602001909291905050506112bb565b005b3480156103de57600080fd5b506103fd6004803603810190808035906020019092919050505061157e565b604051808981526020018881526020018773ffffffffffffffffffffffffffffffffffffffff1673ffffffffffffffffffffffffffffffffffffffff1681526020018673ffffffffffffffffffffffffffffffffffffffff1673ffffffffffffffffffffffffffffffffffffffff16815260200180602001806020018060200180602001858103855289818151815260200191508051906020019080838360005b838110156104b957808201518184015260208101905061049e565b50505050905090810190601f1680156104e65780820380516001836020036101000a031916815260200191505b50858103845288818151815260200191508051906020019080838360005b8381101561051f578082015181840152602081019050610504565b50505050905090810190601f16801561054c5780820380516001836020036101000a031916815260200191505b50858103835287818151815260200191508051906020019080838360005b8381101561058557808201518184015260208101905061056a565b50505050905090810190601f1680156105b25780820380516001836020036101000a031916815260200191505b50858103825286818151815260200191508051906020019080838360005b838110156105eb5780820151818401526020810190506105d0565b50505050905090810190601f1680156106185780820380516001836020036101000a031916815260200191505b509c5050505050505050505050505060405180910390f35b34801561063c57600080fd5b5061067b60048036038101908080359060200190929190803573ffffffffffffffffffffffffffffffffffffffff169060200190929190505050611b31565b005b34801561068957600080fd5b506106be600480360381019080803573ffffffffffffffffffffffffffffffffffffffff169060200190929190505050611cac565b604051808215151515815260200191505060405180910390f35b3480156106e457600080fd5b50610719600480360381019080803573ffffffffffffffffffffffffffffffffffffffff169060200190929190505050611cc9565b005b34801561072757600080fd5b5061076660048036038101908080359060200190929190803573ffffffffffffffffffffffffffffffffffffffff169060200190929190505050611ce9565b005b34801561077457600080fd5b5061091160048036038101908080359060200190929190803573ffffffffffffffffffffffffffffffffffffffff169060200190929190803590602001908201803590602001908080601f0160208091040260200160405190810160405280939291908181526020018383808284378201915050505050509192919290803590602001908201803590602001908080601f0160208091040260200160405190810160405280939291908181526020018383808284378201915050505050509192919290803590602001908201803590602001908080601f0160208091040260200160405190810160405280939291908181526020018383808284378201915050505050509192919290803590602001908201803590602001908080601f0160208091040260200160405190810160405280939291908181526020018383808284378201915050505050509192919290803590602001908201803590602001908080601f0160208091040260200160405190810160405280939291908181526020018383808284378201915050505050509192919290505050611e64565b005b34801561091f57600080fd5b506109286120a1565b005b34801561093657600080fd5b50610955600480360381019080803590602001909291905050506120ac565b005b34801561096357600080fd5b50610982600480360381019080803590602001909291905050506121da565b005b61098d33611cac565b151561099857600080fd5b6109a181612307565b50565b81600260078111156109b257fe5b60056000838152602001908152602001600020600b0160009054906101000a900460ff1660078111156109e157fe5b1415156109ed57600080fd5b6005600084815260200190815260200160002060030160009054906101000a900473ffffffffffffffffffffffffffffffffffffffff168073ffffffffffffffffffffffffffffffffffffffff163373ffffffffffffffffffffffffffffffffffffffff16141515610a5e57600080fd5b600360056000868152602001908152602001600020600b0160006101000a81548160ff02191690836007811115610a9157fe5b02179055508260056000868152602001908152602001600020600a01819055507fa96ae0fc3224ebd79eebfe54bd130cc9cb94416cddd1f2386115e00b72532468846040518082815260200191505060405180910390a150505050565b600260009054906101000a900473ffffffffffffffffffffffffffffffffffffffff1673ffffffffffffffffffffffffffffffffffffffff163373ffffffffffffffffffffffffffffffffffffffff161415610b7f57600260009054906101000a900473ffffffffffffffffffffffffffffffffffffffff1673ffffffffffffffffffffffffffffffffffffffff16ff5b565b6000610b9782600061236190919063ffffffff16565b9050919050565b8160006007811115610bac57fe5b60056000838152602001908152602001600020600b0160009054906101000a900460ff166007811115610bdb57fe5b141515610be757600080fd5b6005600084815260200190815260200160002060030160009054906101000a900473ffffffffffffffffffffffffffffffffffffffff168073ffffffffffffffffffffffffffffffffffffffff163373ffffffffffffffffffffffffffffffffffffffff16141515610c5857600080fd5b600160056000868152602001908152602001600020600b0160006101000a81548160ff02191690836007811115610c8b57fe5b02179055508260056000868152602001908152602001600020600801819055507f5afe3b1bf87069693c075da5c22a98d63d1aef98a30dbbe538d0781a98b77ee5846040518082815260200191505060405180910390a150505050565b610cf1336123f5565b565b600080600060606000806000806000610d0a612662565b600560008c81526020019081526020016000206101e0604051908101604052908160008201548152602001600182015481526020016002820160009054906101000a900473ffffffffffffffffffffffffffffffffffffffff1673ffffffffffffffffffffffffffffffffffffffff1673ffffffffffffffffffffffffffffffffffffffff1681526020016003820160009054906101000a900473ffffffffffffffffffffffffffffffffffffffff1673ffffffffffffffffffffffffffffffffffffffff1673ffffffffffffffffffffffffffffffffffffffff168152602001600482018054600181600116156101000203166002900480601f016020809104026020016040519081016040528092919081815260200182805460018160011615610100020316600290048015610e835780601f10610e5857610100808354040283529160200191610e83565b820191906000526020600020905b815481529060010190602001808311610e6657829003601f168201915b50505050508152602001600582018054600181600116156101000203166002900480601f016020809104026020016040519081016040528092919081815260200182805460018160011615610100020316600290048015610f255780601f10610efa57610100808354040283529160200191610f25565b820191906000526020600020905b815481529060010190602001808311610f0857829003601f168201915b50505050508152602001600682018054600181600116156101000203166002900480601f016020809104026020016040519081016040528092919081815260200182805460018160011615610100020316600290048015610fc75780601f10610f9c57610100808354040283529160200191610fc7565b820191906000526020600020905b815481529060010190602001808311610faa57829003601f168201915b50505050508152602001600782018054600181600116156101000203166002900480601f0160208091040260200160405190810160405280929190818152602001828054600181600116156101000203166002900480156110695780601f1061103e57610100808354040283529160200191611069565b820191906000526020600020905b81548152906001019060200180831161104c57829003601f168201915b5050505050815260200160088201548152602001600982018054600181600116156101000203166002900480601f0160208091040260200160405190810160405280929190818152602001828054600181600116156101000203166002900480156111155780601f106110ea57610100808354040283529160200191611115565b820191906000526020600020905b8154815290600101906020018083116110f857829003601f168201915b50505050508152602001600a8201548152602001600b820160009054906101000a900460ff16600781111561114657fe5b600781111561115157fe5b8152602001600b820160019054906101000a900473ffffffffffffffffffffffffffffffffffffffff1673ffffffffffffffffffffffffffffffffffffffff1673ffffffffffffffffffffffffffffffffffffffff168152602001600c820160009054906101000a900473ffffffffffffffffffffffffffffffffffffffff1673ffffffffffffffffffffffffffffffffffffffff1673ffffffffffffffffffffffffffffffffffffffff168152602001600d820160009054906101000a900473ffffffffffffffffffffffffffffffffffffffff1673ffffffffffffffffffffffffffffffffffffffff1673ffffffffffffffffffffffffffffffffffffffff1681525050905080600001518160200151826101000151836101200151846101400151856101600151600781111561128657fe5b866101800151876101a00151886101c00151859550995099509950995099509950995099509950509193959799909294969850565b81600360078111156112c957fe5b60056000838152602001908152602001600020600b0160009054906101000a900460ff1660078111156112f857fe5b14151561130457600080fd5b60056000848152602001908152602001600020600a015480341015151561132a57600080fd5b83600080856005600089815260200190815260200160002060020160006101000a81548173ffffffffffffffffffffffffffffffffffffffff021916908373ffffffffffffffffffffffffffffffffffffffff1602179055508560056000898152602001908152602001600020600b0160016101000a81548173ffffffffffffffffffffffffffffffffffffffff021916908373ffffffffffffffffffffffffffffffffffffffff160217905550600460056000898152602001908152602001600020600b0160006101000a81548160ff0219169083600781111561140b57fe5b02179055506005600088815260200190815260200160002060030160009054906101000a900473ffffffffffffffffffffffffffffffffffffffff1673ffffffffffffffffffffffffffffffffffffffff166108fc600560008a8152602001908152602001600020600a01549081150290604051600060405180830381858888f193505050501580156114a2573d6000803e3d6000fd5b507f92f64ca637d023f354075a4be751b169c1a8a9ccb6d33cdd0cb3520543995727876040518082815260200191505060405180910390a160056000848152602001908152602001600020600a01549150813403905060056000848152602001908152602001600020600d0160009054906101000a900473ffffffffffffffffffffffffffffffffffffffff1673ffffffffffffffffffffffffffffffffffffffff166108fc829081150290604051600060405180830381858888f19350505050158015611574573d6000803e3d6000fd5b5050505050505050565b600080600080606080606080611592612662565b600560008b81526020019081526020016000206101e0604051908101604052908160008201548152602001600182015481526020016002820160009054906101000a900473ffffffffffffffffffffffffffffffffffffffff1673ffffffffffffffffffffffffffffffffffffffff1673ffffffffffffffffffffffffffffffffffffffff1681526020016003820160009054906101000a900473ffffffffffffffffffffffffffffffffffffffff1673ffffffffffffffffffffffffffffffffffffffff1673ffffffffffffffffffffffffffffffffffffffff168152602001600482018054600181600116156101000203166002900480601f01602080910402602001604051908101604052809291908181526020018280546001816001161561010002031660029004801561170b5780601f106116e05761010080835404028352916020019161170b565b820191906000526020600020905b8154815290600101906020018083116116ee57829003601f168201915b50505050508152602001600582018054600181600116156101000203166002900480601f0160208091040260200160405190810160405280929190818152602001828054600181600116156101000203166002900480156117ad5780601f10611782576101008083540402835291602001916117ad565b820191906000526020600020905b81548152906001019060200180831161179057829003601f168201915b50505050508152602001600682018054600181600116156101000203166002900480601f01602080910402602001604051908101604052809291908181526020018280546001816001161561010002031660029004801561184f5780601f106118245761010080835404028352916020019161184f565b820191906000526020600020905b81548152906001019060200180831161183257829003601f168201915b50505050508152602001600782018054600181600116156101000203166002900480601f0160208091040260200160405190810160405280929190818152602001828054600181600116156101000203166002900480156118f15780601f106118c6576101008083540402835291602001916118f1565b820191906000526020600020905b8154815290600101906020018083116118d457829003601f168201915b5050505050815260200160088201548152602001600982018054600181600116156101000203166002900480601f01602080910402602001604051908101604052809291908181526020018280546001816001161561010002031660029004801561199d5780601f106119725761010080835404028352916020019161199d565b820191906000526020600020905b81548152906001019060200180831161198057829003601f168201915b50505050508152602001600a8201548152602001600b820160009054906101000a900460ff1660078111156119ce57fe5b60078111156119d957fe5b8152602001600b820160019054906101000a900473ffffffffffffffffffffffffffffffffffffffff1673ffffffffffffffffffffffffffffffffffffffff1673ffffffffffffffffffffffffffffffffffffffff168152602001600c820160009054906101000a900473ffffffffffffffffffffffffffffffffffffffff1673ffffffffffffffffffffffffffffffffffffffff1673ffffffffffffffffffffffffffffffffffffffff168152602001600d820160009054906101000a900473ffffffffffffffffffffffffffffffffffffffff1673ffffffffffffffffffffffffffffffffffffffff1673ffffffffffffffffffffffffffffffffffffffff16815250509050806000015181602001518260400151836060015184608001518560a001518660c001518760e001518393508292508191508090509850985098509850985098509850985050919395975091939597565b8160066007811115611b3f57fe5b60056000838152602001908152602001600020600b0160009054906101000a900460ff166007811115611b6e57fe5b141515611b7a57600080fd5b611b8333611cac565b1515611b8e57600080fd5b816005600085815260200190815260200160002060020160006101000a81548173ffffffffffffffffffffffffffffffffffffffff021916908373ffffffffffffffffffffffffffffffffffffffff1602179055508160056000858152602001908152602001600020600d0160006101000a81548173ffffffffffffffffffffffffffffffffffffffff021916908373ffffffffffffffffffffffffffffffffffffffff160217905550600760056000858152602001908152602001600020600b0160006101000a81548160ff02191690836007811115611c6b57fe5b02179055507f653d56639fee6b566a5c804764e9689de38645f0b733df89a36a1b7b42173dd8836040518082815260200191505060405180910390a1505050565b6000611cc282600161236190919063ffffffff16565b9050919050565b611cd233610b81565b1515611cdd57600080fd5b611ce68161244f565b50565b8160056007811115611cf757fe5b60056000838152602001908152602001600020600b0160009054906101000a900460ff166007811115611d2657fe5b141515611d3257600080fd5b611d3b33610b81565b1515611d4657600080fd5b816005600085815260200190815260200160002060020160006101000a81548173ffffffffffffffffffffffffffffffffffffffff021916908373ffffffffffffffffffffffffffffffffffffffff1602179055508160056000858152602001908152602001600020600c0160006101000a81548173ffffffffffffffffffffffffffffffffffffffff021916908373ffffffffffffffffffffffffffffffffffffffff160217905550600660056000858152602001908152602001600020600b0160006101000a81548160ff02191690836007811115611e2357fe5b02179055507fa8142743f8f70a4c26f3691cf4ed59718381fb2f18070ec52be1f1022d855557836040518082815260200191505060405180910390a1505050565b8660056000898152602001908152602001600020600101819055506004546005600089815260200190815260200160002060000181905550856005600089815260200190815260200160002060020160006101000a81548173ffffffffffffffffffffffffffffffffffffffff021916908373ffffffffffffffffffffffffffffffffffffffff160217905550856005600089815260200190815260200160002060030160006101000a81548173ffffffffffffffffffffffffffffffffffffffff021916908373ffffffffffffffffffffffffffffffffffffffff16021790555084600560008981526020019081526020016000206004019080519060200190611f70929190612752565b5083600560008981526020019081526020016000206005019080519060200190611f9b929190612752565b5082600560008981526020019081526020016000206006019080519060200190611fc6929190612752565b5081600560008981526020019081526020016000206007019080519060200190611ff1929190612752565b508060056000898152602001908152602001600020600901908051906020019061201c929190612752565b50600060056000898152602001908152602001600020600b0160006101000a81548160ff0219169083600781111561205057fe5b02179055506001600454016004819055507f8e55ccfc9778ff8eba1646d765cf1982537ce0f9257054a17b48aad745250183876040518082815260200191505060405180910390a150505050505050565b6120aa336124a9565b565b80600160078111156120ba57fe5b60056000838152602001908152602001600020600b0160009054906101000a900460ff1660078111156120e957fe5b1415156120f557600080fd5b6005600083815260200190815260200160002060030160009054906101000a900473ffffffffffffffffffffffffffffffffffffffff168073ffffffffffffffffffffffffffffffffffffffff163373ffffffffffffffffffffffffffffffffffffffff1614151561216657600080fd5b600260056000858152602001908152602001600020600b0160006101000a81548160ff0219169083600781111561219957fe5b02179055507f9b3b66e2380b690bae22c73ef1428fb0c91e72fe14a4b6defa13035214187aff836040518082815260200191505060405180910390a1505050565b80600460078111156121e857fe5b60056000838152602001908152602001600020600b0160009054906101000a900460ff16600781111561221757fe5b14151561222357600080fd5b6005600083815260200190815260200160002060030160009054906101000a900473ffffffffffffffffffffffffffffffffffffffff168073ffffffffffffffffffffffffffffffffffffffff163373ffffffffffffffffffffffffffffffffffffffff1614151561229457600080fd5b6005806000858152602001908152602001600020600b0160006101000a81548160ff021916908360078111156122c657fe5b02179055507ff00b9a5725b80c54016f42114f6ed7792d22eecb116011c4afac29c57bef6c95836040518082815260200191505060405180910390a1505050565b61231b81600161250390919063ffffffff16565b8073ffffffffffffffffffffffffffffffffffffffff167f28b26e7a3d20aedbc5f8f2ebf7da671c0491723a2b78f47a097b0e46dee0714260405160405180910390a250565b60008073ffffffffffffffffffffffffffffffffffffffff168273ffffffffffffffffffffffffffffffffffffffff161415151561239e57600080fd5b8260000160008373ffffffffffffffffffffffffffffffffffffffff1673ffffffffffffffffffffffffffffffffffffffff16815260200190815260200160002060009054906101000a900460ff16905092915050565b6124098160016125b390919063ffffffff16565b8073ffffffffffffffffffffffffffffffffffffffff167fe3f5ed5f263f1f01764a96edfc7d025f511ec5f7d180e8816908b78bcf74f09860405160405180910390a250565b61246381600061250390919063ffffffff16565b8073ffffffffffffffffffffffffffffffffffffffff167f71ae26cad02663e3d92efd6ec56031a80d74a20c0ab4183faa8bf262261c9baa60405160405180910390a250565b6124bd8160006125b390919063ffffffff16565b8073ffffffffffffffffffffffffffffffffffffffff167fdb7176e79cffef81cb01767dd0447a0b24bb72ca9778d4b245581086b2a7e6db60405160405180910390a250565b600073ffffffffffffffffffffffffffffffffffffffff168173ffffffffffffffffffffffffffffffffffffffff161415151561253f57600080fd5b6125498282612361565b15151561255557600080fd5b60018260000160008373ffffffffffffffffffffffffffffffffffffffff1673ffffffffffffffffffffffffffffffffffffffff16815260200190815260200160002060006101000a81548160ff0219169083151502179055505050565b600073ffffffffffffffffffffffffffffffffffffffff168173ffffffffffffffffffffffffffffffffffffffff16141515156125ef57600080fd5b6125f98282612361565b151561260457600080fd5b60008260000160008373ffffffffffffffffffffffffffffffffffffffff1673ffffffffffffffffffffffffffffffffffffffff16815260200190815260200160002060006101000a81548160ff0219169083151502179055505050565b6101e0604051908101604052806000815260200160008152602001600073ffffffffffffffffffffffffffffffffffffffff168152602001600073ffffffffffffffffffffffffffffffffffffffff16815260200160608152602001606081526020016060815260200160608152602001600081526020016060815260200160008152602001600060078111156126f557fe5b8152602001600073ffffffffffffffffffffffffffffffffffffffff168152602001600073ffffffffffffffffffffffffffffffffffffffff168152602001600073ffffffffffffffffffffffffffffffffffffffff1681525090565b828054600181600116156101000203166002900490600052602060002090601f016020900481019282601f1061279357805160ff19168380011785556127c1565b828001600101855582156127c1579182015b828111156127c05782518255916020019190600101906127a5565b5b5090506127ce91906127d2565b5090565b6127f491905b808211156127f05760008160009055506001016127d8565b5090565b905600a165627a7a72305820864d49c461af04ec029dda35700455d67d1786d47900ff805aa1014a123deef40029",
  "source": "pragma solidity ^0.4.24;\n\nimport \"../coffeeaccesscontrol/RetailerRole.sol\";\nimport \"../coffeeaccesscontrol/ConsumerRole.sol\";\n\n// Define a contract 'Supplychain'\ncontract SupplyChain is RetailerRole, ConsumerRole {\n    // Define 'owner'\n    address owner;\n\n    // Define a variable called 'upc' for Universal Product Code (UPC)\n    uint256 upc;\n\n    // Define a variable called 'sku' for Stock Keeping Unit (SKU)\n    uint256 sku;\n\n    // Define a public mapping 'items' that maps the UPC to an Item.\n    mapping(uint256 => Item) items;\n\n    // Define a public mapping 'itemsHistory' that maps the UPC to an array of TxHash,\n    // that track its journey through the supply chain -- to be sent from DApp.\n    mapping(uint256 => string[]) itemsHistory;\n\n    // Define enum 'State' with the following values:\n    enum State {\n        Harvested, // 0\n        Processed, // 1\n        Packed, // 2\n        ForSale, // 3\n        Sold, // 4\n        Shipped, // 5\n        Received, // 6\n        Purchased // 7\n    }\n\n    State constant defaultState = State.Harvested;\n\n    // Define a struct 'Item' with the following fields:\n    struct Item {\n        uint256 sku; // Stock Keeping Unit (SKU)\n        uint256 upc; // Universal Product Code (UPC), generated by the Farmer, goes on the package, can be verified by the Consumer\n        address ownerID; // Metamask-Ethereum address of the current owner as the product moves through 8 stages\n        address originFarmerID; // Metamask-Ethereum address of the Farmer\n        string originFarmName; // Farmer Name\n        string originFarmInformation; // Farmer Information\n        string originFarmLatitude; // Farm Latitude\n        string originFarmLongitude; // Farm Longitude\n        uint256 productID; // Product ID potentially a combination of upc + sku\n        string productNotes; // Product Notes\n        uint256 productPrice; // Product Price\n        State itemState; // Product State as represented in the enum above\n        address distributorID; // Metamask-Ethereum address of the Distributor\n        address retailerID; // Metamask-Ethereum address of the Retailer\n        address consumerID; // Metamask-Ethereum address of the Consumer\n    }\n\n    // Define 8 events with the same 8 state values and accept 'upc' as input argument\n    event Harvested(uint256 upc);\n    event Processed(uint256 upc);\n    event Packed(uint256 upc);\n    event ForSale(uint256 upc);\n    event Sold(uint256 upc);\n    event Shipped(uint256 upc);\n    event Received(uint256 upc);\n    event Purchased(uint256 upc);\n\n    // Define a modifer that checks to see if msg.sender == owner of the contract\n    modifier onlyOwner() {\n        require(msg.sender == owner);\n        _;\n    }\n\n    // Define a modifer that verifies the Caller\n    modifier verifyCaller(address _address) {\n        require(msg.sender == _address);\n        _;\n    }\n\n    // Define a modifier that checks if the paid amount is sufficient to cover the price\n    modifier paidEnough(uint256 _price) {\n        require(msg.value >= _price);\n        _;\n    }\n\n    // Define a modifier that checks the price and refunds the remaining balance\n    modifier checkValue(uint256 _upc) {\n        _;\n        uint256 _price = items[_upc].productPrice;\n        uint256 amountToReturn = msg.value - _price;\n        items[_upc].consumerID.transfer(amountToReturn);\n    }\n\n    // Define a modifier that checks if an item.state of a upc is Harvested\n    modifier harvested(uint256 _upc) {\n        require(items[_upc].itemState == State.Harvested);\n        _;\n    }\n\n    // Define a modifier that checks if an item.state of a upc is Processed\n    modifier processed(uint256 _upc) {\n        require(items[_upc].itemState == State.Processed);\n        _;\n    }\n\n    // Define a modifier that checks if an item.state of a upc is Packed\n    modifier packed(uint256 _upc) {\n        require(items[_upc].itemState == State.Packed);\n        _;\n    }\n\n    // Define a modifier that checks if an item.state of a upc is ForSale\n    modifier forSale(uint256 _upc) {\n        require(items[_upc].itemState == State.ForSale);\n        _;\n    }\n\n    // Define a modifier that checks if an item.state of a upc is Sold\n    modifier sold(uint256 _upc) {\n        require(items[_upc].itemState == State.Sold);\n        _;\n    }\n\n    // Define a modifier that checks if an item.state of a upc is Shipped\n    modifier shipped(uint256 _upc) {\n        require(items[_upc].itemState == State.Shipped);\n        _;\n    }\n\n    // Define a modifier that checks if an item.state of a upc is Received\n    modifier received(uint256 _upc) {\n        require(items[_upc].itemState == State.Received);\n        _;\n    }\n\n    // Define a modifier that checks if an item.state of a upc is Purchased\n    modifier purchased(uint256 _upc) {\n        require(items[_upc].itemState == State.Purchased);\n        _;\n    }\n\n    // In the constructor set 'owner' to the address that instantiated the contract\n    // and set 'sku' to 1\n    // and set 'upc' to 1\n    constructor() public payable {\n        owner = msg.sender;\n        sku = 1;\n        upc = 1;\n    }\n\n    // Define a function 'kill' if required\n    function kill() public {\n        if (msg.sender == owner) {\n            selfdestruct(owner);\n        }\n    }\n\n    // Define a function 'harvestItem' that allows a farmer to mark an item 'Harvested'\n    function harvestItem(\n        uint256 _upc,\n        address _originFarmerID,\n        string _originFarmName,\n        string _originFarmInformation,\n        string _originFarmLatitude,\n        string _originFarmLongitude,\n        string _productNotes\n    ) public {\n        // Add the new item as part of Harvest\n        items[_upc].upc = _upc;\n        items[_upc].sku = sku;\n        items[_upc].ownerID = _originFarmerID;\n        items[_upc].originFarmerID = _originFarmerID;\n        items[_upc].originFarmName = _originFarmName;\n        items[_upc].originFarmInformation = _originFarmInformation;\n        items[_upc].originFarmLatitude = _originFarmLatitude;\n        items[_upc].originFarmLongitude = _originFarmLongitude;\n        items[_upc].productNotes = _productNotes;\n        items[_upc].itemState = defaultState;\n        // Increment sku\n        sku = sku + 1;\n        // Emit the appropriate event\n        emit Harvested(_upc);\n    }\n\n    // Define a function 'processtItem' that allows a farmer to mark an item 'Processed'\n    function processItem(uint256 _upc, uint256 _productID)\n        public\n        harvested(_upc)\n        verifyCaller(items[_upc].originFarmerID)\n    {\n        // Update the appropriate fields\n        items[_upc].itemState = State.Processed;\n        items[_upc].productID = _productID;\n        // Emit the appropriate event\n        emit Processed(_upc);\n    }\n\n    // Define a function 'packItem' that allows a farmer to mark an item 'Packed'\n    function packItem(uint256 _upc)\n        public\n        processed(_upc)\n        verifyCaller(items[_upc].originFarmerID)\n    {\n        // Update the appropriate fields\n        items[_upc].itemState = State.Packed;\n        // Emit the appropriate event\n        emit Packed(_upc);\n    }\n\n    // Define a function 'sellItem' that allows a farmer to mark an item 'ForSale'\n    function sellItem(uint256 _upc, uint256 _price)\n        public\n        packed(_upc)\n        verifyCaller(items[_upc].originFarmerID)\n    {\n        // Update the appropriate fields\n        items[_upc].itemState = State.ForSale;\n        items[_upc].productPrice = _price;\n        // Emit the appropriate event\n        emit ForSale(_upc);\n    }\n\n    // Define a function 'buyItem' that allows the disributor to mark an item 'Sold'\n    // Use the above defined modifiers to check if the item is available for sale, if the buyer has paid enough,\n    // and any excess ether sent is refunded back to the buyer\n    function buyItem(uint256 _upc, address _distributorID)\n        public\n        payable\n        forSale(_upc)\n        paidEnough(items[_upc].productPrice)\n        checkValue(_upc)\n    {\n        // Update the appropriate fields - ownerID, distributorID, itemState\n        items[_upc].ownerID = _distributorID;\n        items[_upc].distributorID = _distributorID;\n        items[_upc].itemState = State.Sold;\n        // Transfer money to farmer\n        items[_upc].originFarmerID.transfer(items[_upc].productPrice);\n        // emit the appropriate event\n        emit Sold(_upc);\n    }\n\n    // Define a function 'shipItem' that allows the distributor to mark an item 'Shipped'\n    // Use the above modifers to check if the item is sold\n    function shipItem(uint256 _upc)\n        public\n        sold(_upc)\n        verifyCaller(items[_upc].originFarmerID)\n    {\n        // Update the appropriate fields\n        items[_upc].itemState = State.Shipped;\n        // Emit the appropriate event\n        emit Shipped(_upc);\n    }\n\n    // Define a function 'receiveItem' that allows the retailer to mark an item 'Received'\n    // Use the above modifiers to check if the item is shipped\n    function receiveItem(uint256 _upc, address _retailerID)\n        public\n        shipped(_upc)\n        onlyRetailer\n    {\n        // Update the appropriate fields - ownerID, retailerID, itemState\n        items[_upc].ownerID = _retailerID;\n        items[_upc].retailerID = _retailerID;\n        items[_upc].itemState = State.Received;\n        // Emit the appropriate event\n        emit Received(_upc);\n    }\n\n    // Define a function 'purchaseItem' that allows the consumer to mark an item 'Purchased'\n    // Use the above modifiers to check if the item is received\n    function purchaseItem(uint256 _upc, address _consumerID)\n        public\n        received(_upc)\n        onlyConsumer\n    {\n        // Update the appropriate fields - ownerID, consumerID, itemState\n        items[_upc].ownerID = _consumerID;\n        items[_upc].consumerID = _consumerID;\n        items[_upc].itemState = State.Purchased;\n        // Emit the appropriate event\n        emit Purchased(_upc);\n    }\n\n    // Define a function 'fetchItemBufferOne' that fetches the data\n    function fetchItemBufferOne(uint256 _upc)\n        public\n        view\n        returns (\n            uint256 itemSKU,\n            uint256 itemUPC,\n            address ownerID,\n            address originFarmerID,\n            string originFarmName,\n            string originFarmInformation,\n            string originFarmLatitude,\n            string originFarmLongitude\n        )\n    {\n        // Assign values to the 8 parameters\n        Item memory item = items[_upc];\n        return (\n            item.sku,\n            item.upc,\n            item.ownerID,\n            item.originFarmerID,\n            item.originFarmName,\n            item.originFarmInformation,\n            item.originFarmLatitude,\n            item.originFarmLongitude\n        );\n    }\n\n    // Define a function 'fetchItemBufferTwo' that fetches the data\n    function fetchItemBufferTwo(uint256 _upc)\n        public\n        view\n        returns (\n            uint256 itemSKU,\n            uint256 itemUPC,\n            uint256 productID,\n            string productNotes,\n            uint256 productPrice,\n            uint256 itemState,\n            address distributorID,\n            address retailerID,\n            address consumerID\n        )\n    {\n        // Assign values to the 9 parameters\n        Item memory item = items[_upc];\n        return (\n            item.sku,\n            item.upc,\n            item.productID,\n            item.productNotes,\n            item.productPrice,\n            uint256(item.itemState),\n            item.distributorID,\n            item.retailerID,\n            item.consumerID\n        );\n    }\n}\n",
  "sourcePath": "/Users/adelmalik/Development/cours/Udacity/project_3/project-6/contracts/coffeebase/SupplyChain.sol",
  "compiler": {
    "name": "solc",
    "version": "0.4.24+commit.e67f0147.Emscripten.clang"
  },
  "schemaVersion": "2.0.1",
  "updatedAt": "2022-01-15T23:06:15.398Z"
}